{
  "contractName": "TodoLists",
  "abi": [
    {
      "stateMutability": "payable",
      "type": "fallback"
    },
    {
      "inputs": [
        {
          "internalType": "address",
          "name": "",
          "type": "address"
        },
        {
          "internalType": "uint256",
          "name": "",
          "type": "uint256"
        }
      ],
      "name": "address2ListIds",
      "outputs": [
        {
          "internalType": "string",
          "name": "",
          "type": "string"
        }
      ],
      "stateMutability": "view",
      "type": "function"
    },
    {
      "inputs": [
        {
          "internalType": "string",
          "name": "",
          "type": "string"
        },
        {
          "internalType": "uint256",
          "name": "",
          "type": "uint256"
        }
      ],
      "name": "id2TodoItems",
      "outputs": [
        {
          "internalType": "string",
          "name": "id",
          "type": "string"
        },
        {
          "internalType": "string",
          "name": "title",
          "type": "string"
        },
        {
          "internalType": "string",
          "name": "description",
          "type": "string"
        },
        {
          "internalType": "bool",
          "name": "isDone",
          "type": "bool"
        }
      ],
      "stateMutability": "view",
      "type": "function"
    },
    {
      "inputs": [
        {
          "internalType": "uint256",
          "name": "",
          "type": "uint256"
        }
      ],
      "name": "listIds",
      "outputs": [
        {
          "internalType": "string",
          "name": "",
          "type": "string"
        }
      ],
      "stateMutability": "view",
      "type": "function"
    },
    {
      "inputs": [
        {
          "internalType": "string",
          "name": "",
          "type": "string"
        }
      ],
      "name": "listIds2exists",
      "outputs": [
        {
          "internalType": "bool",
          "name": "",
          "type": "bool"
        }
      ],
      "stateMutability": "view",
      "type": "function"
    },
    {
      "inputs": [],
      "name": "todoCnt",
      "outputs": [
        {
          "internalType": "uint256",
          "name": "",
          "type": "uint256"
        }
      ],
      "stateMutability": "view",
      "type": "function"
    },
    {
      "inputs": [
        {
          "internalType": "address",
          "name": "",
          "type": "address"
        }
      ],
      "name": "user2used",
      "outputs": [
        {
          "internalType": "bool",
          "name": "",
          "type": "bool"
        }
      ],
      "stateMutability": "view",
      "type": "function"
    },
    {
      "inputs": [
        {
          "internalType": "uint256",
          "name": "",
          "type": "uint256"
        }
      ],
      "name": "users",
      "outputs": [
        {
          "internalType": "address",
          "name": "",
          "type": "address"
        }
      ],
      "stateMutability": "view",
      "type": "function"
    },
    {
      "stateMutability": "payable",
      "type": "receive"
    },
    {
      "inputs": [
        {
          "internalType": "string",
          "name": "_id",
          "type": "string"
        }
      ],
      "name": "addList",
      "outputs": [],
      "stateMutability": "nonpayable",
      "type": "function"
    },
    {
      "inputs": [
        {
          "internalType": "string",
          "name": "_id",
          "type": "string"
        }
      ],
      "name": "removeList",
      "outputs": [],
      "stateMutability": "nonpayable",
      "type": "function"
    },
    {
      "inputs": [],
      "name": "getUserIds",
      "outputs": [
        {
          "internalType": "string[]",
          "name": "",
          "type": "string[]"
        }
      ],
      "stateMutability": "view",
      "type": "function"
    },
    {
      "inputs": [
        {
          "internalType": "string",
          "name": "listid",
          "type": "string"
        },
        {
          "internalType": "string",
          "name": "title",
          "type": "string"
        },
        {
          "internalType": "string",
          "name": "description",
          "type": "string"
        }
      ],
      "name": "addTodo",
      "outputs": [],
      "stateMutability": "nonpayable",
      "type": "function"
    },
    {
      "inputs": [
        {
          "internalType": "string",
          "name": "todoId",
          "type": "string"
        },
        {
          "internalType": "string",
          "name": "listid",
          "type": "string"
        },
        {
          "internalType": "string",
          "name": "title",
          "type": "string"
        },
        {
          "internalType": "string",
          "name": "description",
          "type": "string"
        }
      ],
      "name": "updateTodo",
      "outputs": [],
      "stateMutability": "nonpayable",
      "type": "function"
    },
    {
      "inputs": [
        {
          "internalType": "string",
          "name": "todoId",
          "type": "string"
        },
        {
          "internalType": "string",
          "name": "listid",
          "type": "string"
        }
      ],
      "name": "deleteTodo",
      "outputs": [],
      "stateMutability": "nonpayable",
      "type": "function"
    },
    {
      "inputs": [
        {
          "internalType": "address",
          "name": "user",
          "type": "address"
        }
      ],
      "name": "getTodos",
      "outputs": [
        {
          "components": [
            {
              "internalType": "string",
              "name": "id",
              "type": "string"
            },
            {
              "components": [
                {
                  "internalType": "string",
                  "name": "id",
                  "type": "string"
                },
                {
                  "internalType": "string",
                  "name": "title",
                  "type": "string"
                },
                {
                  "internalType": "string",
                  "name": "description",
                  "type": "string"
                },
                {
                  "internalType": "bool",
                  "name": "isDone",
                  "type": "bool"
                }
              ],
              "internalType": "struct TodoLists.TodoItem[]",
              "name": "todos",
              "type": "tuple[]"
            }
          ],
          "internalType": "struct TodoLists.TodoList[]",
          "name": "",
          "type": "tuple[]"
        }
      ],
      "stateMutability": "view",
      "type": "function"
    }
  ],
  "bytecode": "0x6080604052600060035534801561001557600080fd5b50611fe9806100256000396000f3fe6080604052600436106100d55760003560e01c806380eda6ad11610079578063b9cdbde911610056578063b9cdbde914610297578063da41e67a146102c4578063e01da11e146102e4578063e9c36b061461030657005b806380eda6ad1461020c578063863ad5011461023c578063a6ecdc631461027757005b8063365b98b2116100b2578063365b98b214610154578063529900d51461018c5780635c10955d146101cc5780636a73d9d1146101ec57005b806302209d96146100de5780631b3b7e86146100fe57806324c91ac91461012757005b366100dc57005b005b3480156100ea57600080fd5b506100dc6100f9366004611996565b610326565b34801561010a57600080fd5b5061011460035481565b6040519081526020015b60405180910390f35b34801561013357600080fd5b50610147610142366004611ba1565b6104de565b60405161011e9190611dff565b34801561016057600080fd5b5061017461016f366004611ba1565b61058a565b6040516001600160a01b03909116815260200161011e565b34801561019857600080fd5b506101bc6101a736600461194c565b60026020526000908152604090205460ff1681565b604051901515815260200161011e565b3480156101d857600080fd5b506100dc6101e7366004611a32565b6105b4565b3480156101f857600080fd5b5061014761020736600461196d565b6106e1565b34801561021857600080fd5b5061022c610227366004611b5e565b610719565b60405161011e9493929190611e12565b34801561024857600080fd5b506101bc610257366004611996565b805160208183018101805160018252928201919093012091525460ff1681565b34801561028357600080fd5b506100dc610292366004611ab6565b610910565b3480156102a357600080fd5b506102b76102b236600461194c565b610aa8565b60405161011e9190611cfd565b3480156102d057600080fd5b506100dc6102df366004611996565b610eb7565b3480156102f057600080fd5b506102f961129f565b60405161011e9190611c9c565b34801561031257600080fd5b506100dc6103213660046119d1565b611381565b6001816040516103369190611be5565b9081526040519081900360200190205460ff161515600114156103985760405162461bcd60e51b81526020600482015260156024820152746c697374696420616c72656164792065786973747360581b60448201526064015b60405180910390fd5b33600090815260208181526040822080546001810182559083529181902083516103c993919091019184019061175f565b503360009081526002602052604090205460ff1661043e57336000818152600260205260408120805460ff191660019081179091556005805491820181559091527f036b6384b5eca791c62761152d0c79bb0604c104a5fb6f4eb0703f3154bb3db00180546001600160a01b03191690911790555b60018160405161044e9190611be5565b9081526040519081900360200190205460ff166104db57600180826040516104769190611be5565b90815260405160209181900382019020805460ff1916921515929092179091556004805460018101825560009190915282516104d9927f8a35acfbc15ff81a39ae7d344fd709f28e8600b4aa8c65c6b64bfe7fe36bd19b9092019184019061175f565b505b50565b600481815481106104ee57600080fd5b90600052602060002001600091509050805461050990611f31565b80601f016020809104026020016040519081016040528092919081815260200182805461053590611f31565b80156105825780601f1061055757610100808354040283529160200191610582565b820191906000526020600020905b81548152906001019060200180831161056557829003601f168201915b505050505081565b6005818154811061059a57600080fd5b6000918252602090912001546001600160a01b0316905081565b6001836040516105c49190611be5565b9081526040519081900360200190205460ff166105f35760405162461bcd60e51b815260040161038f90611e5f565b6000604051806080016040528061060b60035461161a565b8152602081018590526040810184905260006060909101819052600380549293509061063683611f6c565b919050555060068460405161064b9190611be5565b90815260405160209181900382019020805460018101825560009182529082902083518051859460049094029092019261068a9284929091019061175f565b5060208281015180516106a3926001850192019061175f565b50604082015180516106bf91600284019160209091019061175f565b50606091909101516003909101805460ff191691151591909117905550505050565b600060205281600052604060002081815481106106fd57600080fd5b9060005260206000200160009150915050805461050990611f31565b8151602081840181018051600682529282019185019190912091905280548290811061074457600080fd5b90600052602060002090600402016000915091505080600001805461076890611f31565b80601f016020809104026020016040519081016040528092919081815260200182805461079490611f31565b80156107e15780601f106107b6576101008083540402835291602001916107e1565b820191906000526020600020905b8154815290600101906020018083116107c457829003601f168201915b5050505050908060010180546107f690611f31565b80601f016020809104026020016040519081016040528092919081815260200182805461082290611f31565b801561086f5780601f106108445761010080835404028352916020019161086f565b820191906000526020600020905b81548152906001019060200180831161085257829003601f168201915b50505050509080600201805461088490611f31565b80601f01602080910402602001604051908101604052809291908181526020018280546108b090611f31565b80156108fd5780601f106108d2576101008083540402835291602001916108fd565b820191906000526020600020905b8154815290600101906020018083116108e057829003601f168201915b5050506003909301549192505060ff1684565b6001836040516109209190611be5565b9081526040519081900360200190205460ff1661094f5760405162461bcd60e51b815260040161038f90611e5f565b60006006846040516109619190611be5565b9081526020016040518091039020905060005b8154811015610aa0578560405160200161098e9190611be5565b604051602081830303815290604052805190602001208282815481106109c457634e487b7160e01b600052603260045260246000fd5b90600052602060002090600402016000016040516020016109e59190611c01565b604051602081830303815290604052805190602001201415610a8e5783828281548110610a2257634e487b7160e01b600052603260045260246000fd5b90600052602060002090600402016001019080519060200190610a4692919061175f565b5082828281548110610a6857634e487b7160e01b600052603260045260246000fd5b90600052602060002090600402016002019080519060200190610a8c92919061175f565b505b80610a9881611f6c565b915050610974565b505050505050565b6001600160a01b038116600090815260208190526040812080546060929067ffffffffffffffff811115610aec57634e487b7160e01b600052604160045260246000fd5b604051908082528060200260200182016040528015610b3157816020015b6040805180820190915260608082526020820152815260200190600190039081610b0a5790505b50905060005b8254811015610eaf5760006006848381548110610b6457634e487b7160e01b600052603260045260246000fd5b90600052602060002001604051610b7b9190611c01565b908152602001604051809103902090506040518060400160405280858481548110610bb657634e487b7160e01b600052603260045260246000fd5b906000526020600020018054610bcb90611f31565b80601f0160208091040260200160405190810160405280929190818152602001828054610bf790611f31565b8015610c445780601f10610c1957610100808354040283529160200191610c44565b820191906000526020600020905b815481529060010190602001808311610c2757829003601f168201915b5050505050815260200182805480602002602001604051908101604052809291908181526020016000905b82821015610e695783829060005260206000209060040201604051806080016040529081600082018054610ca290611f31565b80601f0160208091040260200160405190810160405280929190818152602001828054610cce90611f31565b8015610d1b5780601f10610cf057610100808354040283529160200191610d1b565b820191906000526020600020905b815481529060010190602001808311610cfe57829003601f168201915b50505050508152602001600182018054610d3490611f31565b80601f0160208091040260200160405190810160405280929190818152602001828054610d6090611f31565b8015610dad5780601f10610d8257610100808354040283529160200191610dad565b820191906000526020600020905b815481529060010190602001808311610d9057829003601f168201915b50505050508152602001600282018054610dc690611f31565b80601f0160208091040260200160405190810160405280929190818152602001828054610df290611f31565b8015610e3f5780601f10610e1457610100808354040283529160200191610e3f565b820191906000526020600020905b815481529060010190602001808311610e2257829003601f168201915b50505091835250506003919091015460ff1615156020918201529082526001929092019101610c6f565b50505050815250838381518110610e9057634e487b7160e01b600052603260045260246000fd5b6020026020010181905250508080610ea790611f6c565b915050610b37565b509392505050565b3360009081526002602052604090205460ff16610f165760405162461bcd60e51b815260206004820152601860248201527f55736572206e6576657220757365732074686973206170700000000000000000604482015260640161038f565b336000908152602081905260408120905b815481101561129a5782604051602001610f419190611be5565b60405160208183030381529060405280519060200120828281548110610f7757634e487b7160e01b600052603260045260246000fd5b90600052602060002001604051602001610f919190611c01565b6040516020818303038152906040528051906020012014156112885781548290610fbd90600190611eee565b81548110610fdb57634e487b7160e01b600052603260045260246000fd5b9060005260206000200182828154811061100557634e487b7160e01b600052603260045260246000fd5b9060005260206000200190805461101b90611f31565b6110269291906117e3565b5060006006846040516110399190611be5565b908152602001604051809103902090505b8054156110be578080548061106f57634e487b7160e01b600052603160045260246000fd5b6000828152602081206000199092019160048302019061108f828261185e565b61109d60018301600061185e565b6110ab60028301600061185e565b50600301805460ff19169055905561104a565b828054806110dc57634e487b7160e01b600052603160045260246000fd5b6001900381819060005260206000200160006110f8919061185e565b9055825461125457336000908152600260205260408120805460ff191690555b60055481101561125257336001600160a01b03166005828154811061114d57634e487b7160e01b600052603260045260246000fd5b6000918252602090912001546001600160a01b03161415611240576005805461117890600190611eee565b8154811061119657634e487b7160e01b600052603260045260246000fd5b600091825260209091200154600580546001600160a01b0390921691839081106111d057634e487b7160e01b600052603260045260246000fd5b9060005260206000200160006101000a8154816001600160a01b0302191690836001600160a01b03160217905550600580548061121d57634e487b7160e01b600052603160045260246000fd5b600082815260209020810160001990810180546001600160a01b03191690550190555b8061124a81611f6c565b915050611118565b505b60006001856040516112669190611be5565b908152604051908190036020019020805491151560ff19909216919091179055505b8061129281611f6c565b915050610f27565b505050565b33600090815260208181526040808320805482518185028101850190935280835260609492939192909184015b828210156113785783829060005260206000200180546112eb90611f31565b80601f016020809104026020016040519081016040528092919081815260200182805461131790611f31565b80156113645780601f1061133957610100808354040283529160200191611364565b820191906000526020600020905b81548152906001019060200180831161134757829003601f168201915b5050505050815260200190600101906112cc565b50505050905090565b6001816040516113919190611be5565b9081526040519081900360200190205460ff166113c05760405162461bcd60e51b815260040161038f90611e5f565b60006006826040516113d29190611be5565b90815260405190819003602001902080549091506114235760405162461bcd60e51b815260206004820152600e60248201526d746f646f7320697320656d70747960901b604482015260640161038f565b60005b815481101561161457836040516020016114409190611be5565b6040516020818303038152906040528051906020012082828154811061147657634e487b7160e01b600052603260045260246000fd5b90600052602060002090600402016000016040516020016114979190611c01565b60405160208183030381529060405280519060200120141561160257815482906114c390600190611eee565b815481106114e157634e487b7160e01b600052603260045260246000fd5b906000526020600020906004020182828154811061150f57634e487b7160e01b600052603260045260246000fd5b9060005260206000209060040201600082018160000190805461153190611f31565b61153c9291906117e3565b50600182018160010190805461155190611f31565b61155c9291906117e3565b50600282018160020190805461157190611f31565b61157c9291906117e3565b506003918201549101805460ff191660ff909216151591909117905581548290806115b757634e487b7160e01b600052603160045260246000fd5b600082815260208120600019909201916004830201906115d7828261185e565b6115e560018301600061185e565b6115f360028301600061185e565b50600301805460ff1916905590555b8061160c81611f6c565b915050611426565b50505050565b60608161163e5750506040805180820190915260018152600360fc1b602082015290565b8160005b8115611668578061165281611f6c565b91506116619050600a83611eaf565b9150611642565b60008167ffffffffffffffff81111561169157634e487b7160e01b600052604160045260246000fd5b6040519080825280601f01601f1916602001820160405280156116bb576020820181803683370190505b509050815b8515611756576116d1600182611eee565b905060006116e0600a88611eaf565b6116eb90600a611ecf565b6116f59088611eee565b611700906030611e8a565b905060008160f81b90508084848151811061172b57634e487b7160e01b600052603260045260246000fd5b60200101906001600160f81b031916908160001a90535061174d600a89611eaf565b975050506116c0565b50949350505050565b82805461176b90611f31565b90600052602060002090601f01602090048101928261178d57600085556117d3565b82601f106117a657805160ff19168380011785556117d3565b828001600101855582156117d3579182015b828111156117d35782518255916020019190600101906117b8565b506117df929150611894565b5090565b8280546117ef90611f31565b90600052602060002090601f01602090048101928261181157600085556117d3565b82601f1061182257805485556117d3565b828001600101855582156117d357600052602060002091601f016020900482015b828111156117d3578254825591600101919060010190611843565b50805461186a90611f31565b6000825580601f1061187a575050565b601f0160209004906000526020600020908101906104db91905b5b808211156117df5760008155600101611895565b80356001600160a01b03811681146118c057600080fd5b919050565b600082601f8301126118d5578081fd5b813567ffffffffffffffff808211156118f0576118f0611f9d565b604051601f8301601f19908116603f0116810190828211818310171561191857611918611f9d565b81604052838152866020858801011115611930578485fd5b8360208701602083013792830160200193909352509392505050565b60006020828403121561195d578081fd5b611966826118a9565b9392505050565b6000806040838503121561197f578081fd5b611988836118a9565b946020939093013593505050565b6000602082840312156119a7578081fd5b813567ffffffffffffffff8111156119bd578182fd5b6119c9848285016118c5565b949350505050565b600080604083850312156119e3578182fd5b823567ffffffffffffffff808211156119fa578384fd5b611a06868387016118c5565b93506020850135915080821115611a1b578283fd5b50611a28858286016118c5565b9150509250929050565b600080600060608486031215611a46578081fd5b833567ffffffffffffffff80821115611a5d578283fd5b611a69878388016118c5565b94506020860135915080821115611a7e578283fd5b611a8a878388016118c5565b93506040860135915080821115611a9f578283fd5b50611aac868287016118c5565b9150509250925092565b60008060008060808587031215611acb578081fd5b843567ffffffffffffffff80821115611ae2578283fd5b611aee888389016118c5565b95506020870135915080821115611b03578283fd5b611b0f888389016118c5565b94506040870135915080821115611b24578283fd5b611b30888389016118c5565b93506060870135915080821115611b45578283fd5b50611b52878288016118c5565b91505092959194509250565b60008060408385031215611b70578182fd5b823567ffffffffffffffff811115611b86578283fd5b611b92858286016118c5565b95602094909401359450505050565b600060208284031215611bb2578081fd5b5035919050565b60008151808452611bd1816020860160208601611f05565b601f01601f19169290920160200192915050565b60008251611bf7818460208701611f05565b9190910192915050565b600080835482600182811c915080831680611c1d57607f831692505b6020808410821415611c3d57634e487b7160e01b87526022600452602487fd5b818015611c515760018114611c6257611c8e565b60ff19861689528489019650611c8e565b60008a815260209020885b86811015611c865781548b820152908501908301611c6d565b505084890196505b509498975050505050505050565b6000602080830181845280855180835260408601915060408160051b8701019250838701855b82811015611cf057603f19888603018452611cde858351611bb9565b94509285019290850190600101611cc2565b5092979650505050505050565b6000602080830181845280855180835260408601915060408160051b8701019250838701855b82811015611cf057603f198886030184528151805160408752611d496040880182611bb9565b91880151878303888a0152805180845290890192915088820190600581901b83018a018b5b82811015611de857601f198583030184528551805160808452611d946080850182611bb9565b90508d8201518482038f860152611dab8282611bb9565b91505060408201518482036040860152611dc58282611bb9565b6060938401511515959093019490945250958c0195938c01939150600101611d6e565b509850505094870194505090850190600101611d23565b6020815260006119666020830184611bb9565b608081526000611e256080830187611bb9565b8281036020840152611e378187611bb9565b90508281036040840152611e4b8186611bb9565b915050821515606083015295945050505050565b6020808252601190820152706c6973746964206e6f742065786973747360781b604082015260600190565b600060ff821660ff84168060ff03821115611ea757611ea7611f87565b019392505050565b600082611eca57634e487b7160e01b81526012600452602481fd5b500490565b6000816000190483118215151615611ee957611ee9611f87565b500290565b600082821015611f0057611f00611f87565b500390565b60005b83811015611f20578181015183820152602001611f08565b838111156116145750506000910152565b600181811c90821680611f4557607f821691505b60208210811415611f6657634e487b7160e01b600052602260045260246000fd5b50919050565b6000600019821415611f8057611f80611f87565b5060010190565b634e487b7160e01b600052601160045260246000fd5b634e487b7160e01b600052604160045260246000fdfea2646970667358221220b0115d9c624b0e902dfc27376b00d570b8ce522643cad232d7eb60b1dfc99ad064736f6c63430008040033",
  "immutableReferences": {},
  "source": "pragma solidity 0.8.4;\r\n\r\n// SPDX-License-Identifier: BUSL-1.1\r\n\r\n// import \"Ownable.sol\";\r\n// https://github.com/OpenZeppelin/openzeppelin-contracts/blob/master/contracts/access/Ownable.sol\r\n\r\ncontract TodoLists {\r\n    mapping(address => string[]) public address2ListIds;\r\n    mapping(string => bool) public listIds2exists;\r\n    mapping(address => bool) public user2used;\r\n    uint256 public todoCnt = 0;\r\n    string[] public listIds;\r\n\r\n    address[] public users;\r\n\r\n    function uint2str(\r\n        uint256 _i\r\n    ) internal pure returns (string memory _uintAsString) {\r\n        if (_i == 0) {\r\n            return \"0\";\r\n        }\r\n        uint256 j = _i;\r\n        uint256 len;\r\n        while (j != 0) {\r\n            len++;\r\n            j /= 10;\r\n        }\r\n        bytes memory bstr = new bytes(len);\r\n        uint k = len;\r\n        while (_i != 0) {\r\n            k = k - 1;\r\n            uint8 temp = (48 + uint8(_i - (_i / 10) * 10));\r\n            bytes1 b1 = bytes1(temp);\r\n            bstr[k] = b1;\r\n            _i /= 10;\r\n        }\r\n        return string(bstr);\r\n    }\r\n\r\n    struct TodoItem {\r\n        string id;\r\n        string title;\r\n        string description;\r\n        bool isDone;\r\n    }\r\n    struct TodoList {\r\n        string id;\r\n        TodoItem[] todos;\r\n    }\r\n    mapping(string => TodoItem[]) public id2TodoItems;\r\n\r\n    function addList(string memory _id) public {\r\n        if (listIds2exists[_id] == true) {\r\n            revert(\"listid already exists\");\r\n        }\r\n        address2ListIds[msg.sender].push(_id);\r\n        if (user2used[msg.sender] == false) {\r\n            user2used[msg.sender] = true;\r\n            users.push(msg.sender);\r\n        }\r\n        if (listIds2exists[_id] == false) {\r\n            listIds2exists[_id] = true;\r\n            listIds.push(_id);\r\n        }\r\n    }\r\n\r\n    function removeList(string memory _id) public {\r\n        if (!user2used[msg.sender]) {\r\n            revert(\"User never uses this app\");\r\n        }\r\n        string[] storage userLists = address2ListIds[msg.sender];\r\n        for (uint i = 0; i < userLists.length; i++) {\r\n            // keccak256(abi.encodePacked(str1)) == keccak256(abi.encodePacked(str2));\r\n            if (\r\n                keccak256(abi.encodePacked(userLists[i])) ==\r\n                keccak256(abi.encodePacked(_id))\r\n            ) {\r\n                userLists[i] = userLists[userLists.length - 1];\r\n                TodoItem[] storage todos = id2TodoItems[_id];\r\n                while (todos.length > 0) {\r\n                    todos.pop();\r\n                }\r\n                userLists.pop();\r\n                if (userLists.length == 0) {\r\n                    // turn off the user\r\n                    user2used[msg.sender] = false;\r\n                    // delete user from users\r\n                    for (uint j = 0; j < users.length; j++) {\r\n                        if (users[j] == msg.sender) {\r\n                            users[j] = users[users.length - 1];\r\n                            users.pop();\r\n                        }\r\n                    }\r\n                }\r\n                listIds2exists[_id] = false;\r\n            }\r\n        }\r\n    }\r\n\r\n    function getUserIds() public view returns (string[] memory) {\r\n        return address2ListIds[msg.sender];\r\n    }\r\n\r\n    function addTodo(\r\n        string memory listid,\r\n        string memory title,\r\n        string memory description\r\n    ) public {\r\n        if (listIds2exists[listid] == false) {\r\n            revert(\"listid not exists\");\r\n        }\r\n        TodoItem memory todoItem = TodoItem(\r\n            uint2str(todoCnt),\r\n            title,\r\n            description,\r\n            false\r\n        );\r\n        todoCnt++;\r\n        id2TodoItems[listid].push(todoItem);\r\n    }\r\n\r\n    function updateTodo(\r\n        string memory todoId,\r\n        string memory listid,\r\n        string memory title,\r\n        string memory description\r\n    ) public {\r\n        if (listIds2exists[listid] == false) {\r\n            revert(\"listid not exists\");\r\n        }\r\n        TodoItem[] storage todos = id2TodoItems[listid];\r\n        for (uint i = 0; i < todos.length; i++) {\r\n            if (\r\n                keccak256(abi.encodePacked(todos[i].id)) ==\r\n                keccak256(abi.encodePacked(todoId))\r\n            ) {\r\n                todos[i].title = title;\r\n                todos[i].description = description;\r\n            }\r\n        }\r\n    }\r\n\r\n    function deleteTodo(string memory todoId, string memory listid) public {\r\n        if (listIds2exists[listid] == false) {\r\n            revert(\"listid not exists\");\r\n        }\r\n        TodoItem[] storage todos = id2TodoItems[listid];\r\n        if (todos.length == 0) {\r\n            revert(\"todos is empty\");\r\n        }\r\n        for (uint i = 0; i < todos.length; i++) {\r\n            if (\r\n                keccak256(abi.encodePacked(todos[i].id)) ==\r\n                keccak256(abi.encodePacked(todoId))\r\n            ) {\r\n                todos[i] = todos[todos.length - 1];\r\n                todos.pop();\r\n            }\r\n        }\r\n    }\r\n\r\n    function getTodos(address user) public view returns (TodoList[] memory) {\r\n        string[] storage userLists = address2ListIds[user];\r\n        TodoList[] memory todoLists = new TodoList[](userLists.length);\r\n        for (uint i = 0; i < userLists.length; i++) {\r\n            TodoItem[] storage todos = id2TodoItems[userLists[i]];\r\n            todoLists[i] = TodoList(userLists[i], todos);\r\n        }\r\n        return todoLists;\r\n    }\r\n\r\n    receive() external payable {}\r\n\r\n    fallback() external payable {}\r\n}",
  "sourcePath": "C:\\Users\\Ayush\\Documents\\Ayush\\Interview\\Muon Capital\\DefiApp\\source\\contract_code\\contracts\\TodoList.sol",
  "compiler": {
    "name": "solc",
    "version": "0.8.4+commit.c7e474f2.Emscripten.clang"
  },
  "schemaVersion": "3.4.14",
  "updatedAt": "2023-05-21T08:52:27.904Z",
  "devdoc": {
    "kind": "dev",
    "methods": {},
    "version": 1
  },
  "userdoc": {
    "kind": "user",
    "methods": {},
    "version": 1
  }
}